{
  "contractName": "Spacebear",
  "abi": [
    {
      "inputs": [],
      "stateMutability": "nonpayable",
      "type": "constructor"
    },
    {
      "inputs": [
        {
          "internalType": "address",
          "name": "sender",
          "type": "address"
        },
        {
          "internalType": "uint256",
          "name": "tokenId",
          "type": "uint256"
        },
        {
          "internalType": "address",
          "name": "owner",
          "type": "address"
        }
      ],
      "name": "ERC721IncorrectOwner",
      "type": "error"
    },
    {
      "inputs": [
        {
          "internalType": "address",
          "name": "operator",
          "type": "address"
        },
        {
          "internalType": "uint256",
          "name": "tokenId",
          "type": "uint256"
        }
      ],
      "name": "ERC721InsufficientApproval",
      "type": "error"
    },
    {
      "inputs": [
        {
          "internalType": "address",
          "name": "approver",
          "type": "address"
        }
      ],
      "name": "ERC721InvalidApprover",
      "type": "error"
    },
    {
      "inputs": [
        {
          "internalType": "address",
          "name": "operator",
          "type": "address"
        }
      ],
      "name": "ERC721InvalidOperator",
      "type": "error"
    },
    {
      "inputs": [
        {
          "internalType": "address",
          "name": "owner",
          "type": "address"
        }
      ],
      "name": "ERC721InvalidOwner",
      "type": "error"
    },
    {
      "inputs": [
        {
          "internalType": "address",
          "name": "receiver",
          "type": "address"
        }
      ],
      "name": "ERC721InvalidReceiver",
      "type": "error"
    },
    {
      "inputs": [
        {
          "internalType": "address",
          "name": "sender",
          "type": "address"
        }
      ],
      "name": "ERC721InvalidSender",
      "type": "error"
    },
    {
      "inputs": [
        {
          "internalType": "uint256",
          "name": "tokenId",
          "type": "uint256"
        }
      ],
      "name": "ERC721NonexistentToken",
      "type": "error"
    },
    {
      "anonymous": false,
      "inputs": [
        {
          "indexed": true,
          "internalType": "address",
          "name": "owner",
          "type": "address"
        },
        {
          "indexed": true,
          "internalType": "address",
          "name": "approved",
          "type": "address"
        },
        {
          "indexed": true,
          "internalType": "uint256",
          "name": "tokenId",
          "type": "uint256"
        }
      ],
      "name": "Approval",
      "type": "event"
    },
    {
      "anonymous": false,
      "inputs": [
        {
          "indexed": true,
          "internalType": "address",
          "name": "owner",
          "type": "address"
        },
        {
          "indexed": true,
          "internalType": "address",
          "name": "operator",
          "type": "address"
        },
        {
          "indexed": false,
          "internalType": "bool",
          "name": "approved",
          "type": "bool"
        }
      ],
      "name": "ApprovalForAll",
      "type": "event"
    },
    {
      "anonymous": false,
      "inputs": [
        {
          "indexed": false,
          "internalType": "uint256",
          "name": "_fromTokenId",
          "type": "uint256"
        },
        {
          "indexed": false,
          "internalType": "uint256",
          "name": "_toTokenId",
          "type": "uint256"
        }
      ],
      "name": "BatchMetadataUpdate",
      "type": "event"
    },
    {
      "anonymous": false,
      "inputs": [
        {
          "indexed": false,
          "internalType": "uint256",
          "name": "_tokenId",
          "type": "uint256"
        }
      ],
      "name": "MetadataUpdate",
      "type": "event"
    },
    {
      "anonymous": false,
      "inputs": [
        {
          "indexed": true,
          "internalType": "address",
          "name": "from",
          "type": "address"
        },
        {
          "indexed": true,
          "internalType": "address",
          "name": "to",
          "type": "address"
        },
        {
          "indexed": true,
          "internalType": "uint256",
          "name": "tokenId",
          "type": "uint256"
        }
      ],
      "name": "Transfer",
      "type": "event"
    },
    {
      "inputs": [
        {
          "internalType": "address",
          "name": "to",
          "type": "address"
        },
        {
          "internalType": "uint256",
          "name": "tokenId",
          "type": "uint256"
        }
      ],
      "name": "approve",
      "outputs": [],
      "stateMutability": "nonpayable",
      "type": "function"
    },
    {
      "inputs": [
        {
          "internalType": "address",
          "name": "owner",
          "type": "address"
        }
      ],
      "name": "balanceOf",
      "outputs": [
        {
          "internalType": "uint256",
          "name": "",
          "type": "uint256"
        }
      ],
      "stateMutability": "view",
      "type": "function",
      "constant": true
    },
    {
      "inputs": [
        {
          "internalType": "uint256",
          "name": "tokenId",
          "type": "uint256"
        }
      ],
      "name": "getApproved",
      "outputs": [
        {
          "internalType": "address",
          "name": "",
          "type": "address"
        }
      ],
      "stateMutability": "view",
      "type": "function",
      "constant": true
    },
    {
      "inputs": [
        {
          "internalType": "address",
          "name": "owner",
          "type": "address"
        },
        {
          "internalType": "address",
          "name": "operator",
          "type": "address"
        }
      ],
      "name": "isApprovedForAll",
      "outputs": [
        {
          "internalType": "bool",
          "name": "",
          "type": "bool"
        }
      ],
      "stateMutability": "view",
      "type": "function",
      "constant": true
    },
    {
      "inputs": [],
      "name": "name",
      "outputs": [
        {
          "internalType": "string",
          "name": "",
          "type": "string"
        }
      ],
      "stateMutability": "view",
      "type": "function",
      "constant": true
    },
    {
      "inputs": [
        {
          "internalType": "uint256",
          "name": "tokenId",
          "type": "uint256"
        }
      ],
      "name": "ownerOf",
      "outputs": [
        {
          "internalType": "address",
          "name": "",
          "type": "address"
        }
      ],
      "stateMutability": "view",
      "type": "function",
      "constant": true
    },
    {
      "inputs": [
        {
          "internalType": "address",
          "name": "from",
          "type": "address"
        },
        {
          "internalType": "address",
          "name": "to",
          "type": "address"
        },
        {
          "internalType": "uint256",
          "name": "tokenId",
          "type": "uint256"
        }
      ],
      "name": "safeTransferFrom",
      "outputs": [],
      "stateMutability": "nonpayable",
      "type": "function"
    },
    {
      "inputs": [
        {
          "internalType": "address",
          "name": "from",
          "type": "address"
        },
        {
          "internalType": "address",
          "name": "to",
          "type": "address"
        },
        {
          "internalType": "uint256",
          "name": "tokenId",
          "type": "uint256"
        },
        {
          "internalType": "bytes",
          "name": "data",
          "type": "bytes"
        }
      ],
      "name": "safeTransferFrom",
      "outputs": [],
      "stateMutability": "nonpayable",
      "type": "function"
    },
    {
      "inputs": [
        {
          "internalType": "address",
          "name": "operator",
          "type": "address"
        },
        {
          "internalType": "bool",
          "name": "approved",
          "type": "bool"
        }
      ],
      "name": "setApprovalForAll",
      "outputs": [],
      "stateMutability": "nonpayable",
      "type": "function"
    },
    {
      "inputs": [],
      "name": "symbol",
      "outputs": [
        {
          "internalType": "string",
          "name": "",
          "type": "string"
        }
      ],
      "stateMutability": "view",
      "type": "function",
      "constant": true
    },
    {
      "inputs": [
        {
          "internalType": "address",
          "name": "from",
          "type": "address"
        },
        {
          "internalType": "address",
          "name": "to",
          "type": "address"
        },
        {
          "internalType": "uint256",
          "name": "tokenId",
          "type": "uint256"
        }
      ],
      "name": "transferFrom",
      "outputs": [],
      "stateMutability": "nonpayable",
      "type": "function"
    },
    {
      "inputs": [
        {
          "internalType": "address",
          "name": "to",
          "type": "address"
        },
        {
          "internalType": "string",
          "name": "uri",
          "type": "string"
        }
      ],
      "name": "safeMint",
      "outputs": [],
      "stateMutability": "nonpayable",
      "type": "function"
    },
    {
      "inputs": [
        {
          "internalType": "uint256",
          "name": "tokenId",
          "type": "uint256"
        }
      ],
      "name": "tokenURI",
      "outputs": [
        {
          "internalType": "string",
          "name": "",
          "type": "string"
        }
      ],
      "stateMutability": "view",
      "type": "function",
      "constant": true
    },
    {
      "inputs": [
        {
          "internalType": "bytes4",
          "name": "interfaceId",
          "type": "bytes4"
        }
      ],
      "name": "supportsInterface",
      "outputs": [
        {
          "internalType": "bool",
          "name": "",
          "type": "bool"
        }
      ],
      "stateMutability": "view",
      "type": "function",
      "constant": true
    }
  ],
  "bytecode": "0x608060405234801562000010575f80fd5b506040518060400160405280600981526020017f53706163656265617200000000000000000000000000000000000000000000008152506040518060400160405280600381526020017f5350420000000000000000000000000000000000000000000000000000000000815250815f90816200008d91906200030c565b5080600190816200009f91906200030c565b505050620003f0565b5f81519050919050565b7f4e487b71000000000000000000000000000000000000000000000000000000005f52604160045260245ffd5b7f4e487b71000000000000000000000000000000000000000000000000000000005f52602260045260245ffd5b5f60028204905060018216806200012457607f821691505b6020821081036200013a5762000139620000df565b5b50919050565b5f819050815f5260205f209050919050565b5f6020601f8301049050919050565b5f82821b905092915050565b5f600883026200019e7fffffffffffffffffffffffffffffffffffffffffffffffffffffffffffffffff8262000161565b620001aa868362000161565b95508019841693508086168417925050509392505050565b5f819050919050565b5f819050919050565b5f620001f4620001ee620001e884620001c2565b620001cb565b620001c2565b9050919050565b5f819050919050565b6200020f83620001d4565b620002276200021e82620001fb565b8484546200016d565b825550505050565b5f90565b6200023d6200022f565b6200024a81848462000204565b505050565b5b818110156200027157620002655f8262000233565b60018101905062000250565b5050565b601f821115620002c0576200028a8162000140565b620002958462000152565b81016020851015620002a5578190505b620002bd620002b48562000152565b8301826200024f565b50505b505050565b5f82821c905092915050565b5f620002e25f1984600802620002c5565b1980831691505092915050565b5f620002fc8383620002d1565b9150826002028217905092915050565b6200031782620000a8565b67ffffffffffffffff811115620003335762000332620000b2565b5b6200033f82546200010c565b6200034c82828562000275565b5f60209050601f83116001811462000382575f84156200036d578287015190505b620003798582620002ef565b865550620003e8565b601f198416620003928662000140565b5f5b82811015620003bb5784890151825560018201915060208501945060208101905062000394565b86831015620003db5784890151620003d7601f891682620002d1565b8355505b6001600288020188555050505b505050505050565b61239280620003fe5f395ff3fe608060405234801561000f575f80fd5b50600436106100e8575f3560e01c806370a082311161008a578063b88d4fde11610064578063b88d4fde14610258578063c87b56dd14610274578063d204c45e146102a4578063e985e9c5146102c0576100e8565b806370a08231146101ee57806395d89b411461021e578063a22cb4651461023c576100e8565b8063095ea7b3116100c6578063095ea7b31461016a57806323b872dd1461018657806342842e0e146101a25780636352211e146101be576100e8565b806301ffc9a7146100ec57806306fdde031461011c578063081812fc1461013a575b5f80fd5b610106600480360381019061010191906117f5565b6102f0565b604051610113919061183a565b60405180910390f35b610124610301565b60405161013191906118dd565b60405180910390f35b610154600480360381019061014f9190611930565b610390565b604051610161919061199a565b60405180910390f35b610184600480360381019061017f91906119dd565b6103ab565b005b6101a0600480360381019061019b9190611a1b565b6103c1565b005b6101bc60048036038101906101b79190611a1b565b6104c0565b005b6101d860048036038101906101d39190611930565b6104df565b6040516101e5919061199a565b60405180910390f35b61020860048036038101906102039190611a6b565b6104f0565b6040516102159190611aa5565b60405180910390f35b6102266105a6565b60405161023391906118dd565b60405180910390f35b61025660048036038101906102519190611ae8565b610636565b005b610272600480360381019061026d9190611c52565b61064c565b005b61028e60048036038101906102899190611930565b610669565b60405161029b91906118dd565b60405180910390f35b6102be60048036038101906102b99190611d70565b61067b565b005b6102da60048036038101906102d59190611dca565b6106ad565b6040516102e7919061183a565b60405180910390f35b5f6102fa8261073b565b9050919050565b60605f805461030f90611e35565b80601f016020809104026020016040519081016040528092919081815260200182805461033b90611e35565b80156103865780601f1061035d57610100808354040283529160200191610386565b820191905f5260205f20905b81548152906001019060200180831161036957829003601f168201915b5050505050905090565b5f61039a8261079b565b506103a482610821565b9050919050565b6103bd82826103b861085a565b610861565b5050565b5f73ffffffffffffffffffffffffffffffffffffffff168273ffffffffffffffffffffffffffffffffffffffff1603610431575f6040517f64a0ae92000000000000000000000000000000000000000000000000000000008152600401610428919061199a565b60405180910390fd5b5f610444838361043f61085a565b610873565b90508373ffffffffffffffffffffffffffffffffffffffff168173ffffffffffffffffffffffffffffffffffffffff16146104ba578382826040517f64283d7b0000000000000000000000000000000000000000000000000000000081526004016104b193929190611e65565b60405180910390fd5b50505050565b6104da83838360405180602001604052805f81525061064c565b505050565b5f6104e98261079b565b9050919050565b5f8073ffffffffffffffffffffffffffffffffffffffff168273ffffffffffffffffffffffffffffffffffffffff1603610561575f6040517f89c62b64000000000000000000000000000000000000000000000000000000008152600401610558919061199a565b60405180910390fd5b60035f8373ffffffffffffffffffffffffffffffffffffffff1673ffffffffffffffffffffffffffffffffffffffff1681526020019081526020015f20549050919050565b6060600180546105b590611e35565b80601f01602080910402602001604051908101604052809291908181526020018280546105e190611e35565b801561062c5780601f106106035761010080835404028352916020019161062c565b820191905f5260205f20905b81548152906001019060200180831161060f57829003601f168201915b5050505050905090565b61064861064161085a565b8383610a7e565b5050565b6106578484846103c1565b61066384848484610be7565b50505050565b606061067482610d99565b9050919050565b5f60075f81548092919061068e90611ec7565b91905055905061069e8382610ea4565b6106a88183610ec1565b505050565b5f60055f8473ffffffffffffffffffffffffffffffffffffffff1673ffffffffffffffffffffffffffffffffffffffff1681526020019081526020015f205f8373ffffffffffffffffffffffffffffffffffffffff1673ffffffffffffffffffffffffffffffffffffffff1681526020019081526020015f205f9054906101000a900460ff16905092915050565b5f634906490660e01b7bffffffffffffffffffffffffffffffffffffffffffffffffffffffff1916827bffffffffffffffffffffffffffffffffffffffffffffffffffffffff19161480610794575061079382610f1b565b5b9050919050565b5f806107a683610ffc565b90505f73ffffffffffffffffffffffffffffffffffffffff168173ffffffffffffffffffffffffffffffffffffffff160361081857826040517f7e27328900000000000000000000000000000000000000000000000000000000815260040161080f9190611aa5565b60405180910390fd5b80915050919050565b5f60045f8381526020019081526020015f205f9054906101000a900473ffffffffffffffffffffffffffffffffffffffff169050919050565b5f33905090565b61086e8383836001611035565b505050565b5f8061087e84610ffc565b90505f73ffffffffffffffffffffffffffffffffffffffff168373ffffffffffffffffffffffffffffffffffffffff16146108bf576108be8184866111f4565b5b5f73ffffffffffffffffffffffffffffffffffffffff168173ffffffffffffffffffffffffffffffffffffffff161461094a576108fe5f855f80611035565b600160035f8373ffffffffffffffffffffffffffffffffffffffff1673ffffffffffffffffffffffffffffffffffffffff1681526020019081526020015f205f82825403925050819055505b5f73ffffffffffffffffffffffffffffffffffffffff168573ffffffffffffffffffffffffffffffffffffffff16146109c957600160035f8773ffffffffffffffffffffffffffffffffffffffff1673ffffffffffffffffffffffffffffffffffffffff1681526020019081526020015f205f82825401925050819055505b8460025f8681526020019081526020015f205f6101000a81548173ffffffffffffffffffffffffffffffffffffffff021916908373ffffffffffffffffffffffffffffffffffffffff160217905550838573ffffffffffffffffffffffffffffffffffffffff168273ffffffffffffffffffffffffffffffffffffffff167fddf252ad1be2c89b69c2b068fc378daa952ba7f163c4a11628f55a4df523b3ef60405160405180910390a4809150509392505050565b5f73ffffffffffffffffffffffffffffffffffffffff168273ffffffffffffffffffffffffffffffffffffffff1603610aee57816040517f5b08ba18000000000000000000000000000000000000000000000000000000008152600401610ae5919061199a565b60405180910390fd5b8060055f8573ffffffffffffffffffffffffffffffffffffffff1673ffffffffffffffffffffffffffffffffffffffff1681526020019081526020015f205f8473ffffffffffffffffffffffffffffffffffffffff1673ffffffffffffffffffffffffffffffffffffffff1681526020019081526020015f205f6101000a81548160ff0219169083151502179055508173ffffffffffffffffffffffffffffffffffffffff168373ffffffffffffffffffffffffffffffffffffffff167f17307eab39ab6107e8899845ad3d59bd9653f200f220920489ca2b5937696c3183604051610bda919061183a565b60405180910390a3505050565b5f8373ffffffffffffffffffffffffffffffffffffffff163b1115610d93578273ffffffffffffffffffffffffffffffffffffffff1663150b7a02610c2a61085a565b8685856040518563ffffffff1660e01b8152600401610c4c9493929190611f60565b6020604051808303815f875af1925050508015610c8757506040513d601f19601f82011682018060405250810190610c849190611fbe565b60015b610d08573d805f8114610cb5576040519150601f19603f3d011682016040523d82523d5f602084013e610cba565b606091505b505f815103610d0057836040517f64a0ae92000000000000000000000000000000000000000000000000000000008152600401610cf7919061199a565b60405180910390fd5b805181602001fd5b63150b7a0260e01b7bffffffffffffffffffffffffffffffffffffffffffffffffffffffff1916817bffffffffffffffffffffffffffffffffffffffffffffffffffffffff191614610d9157836040517f64a0ae92000000000000000000000000000000000000000000000000000000008152600401610d88919061199a565b60405180910390fd5b505b50505050565b6060610da48261079b565b505f60065f8481526020019081526020015f208054610dc290611e35565b80601f0160208091040260200160405190810160405280929190818152602001828054610dee90611e35565b8015610e395780601f10610e1057610100808354040283529160200191610e39565b820191905f5260205f20905b815481529060010190602001808311610e1c57829003601f168201915b505050505090505f610e496112b7565b90505f815103610e5d578192505050610e9f565b5f82511115610e91578082604051602001610e79929190612023565b60405160208183030381529060405292505050610e9f565b610e9a846112d7565b925050505b919050565b610ebd828260405180602001604052805f81525061133d565b5050565b8060065f8481526020019081526020015f209081610edf91906121e3565b507ff8e1a15aba9398e019f0b49df1a4fde98ee17ae345cb5f6b5e2c27f5033e8ce782604051610f0f9190611aa5565b60405180910390a15050565b5f7f80ac58cd000000000000000000000000000000000000000000000000000000007bffffffffffffffffffffffffffffffffffffffffffffffffffffffff1916827bffffffffffffffffffffffffffffffffffffffffffffffffffffffff19161480610fe557507f5b5e139f000000000000000000000000000000000000000000000000000000007bffffffffffffffffffffffffffffffffffffffffffffffffffffffff1916827bffffffffffffffffffffffffffffffffffffffffffffffffffffffff1916145b80610ff55750610ff482611358565b5b9050919050565b5f60025f8381526020019081526020015f205f9054906101000a900473ffffffffffffffffffffffffffffffffffffffff169050919050565b808061106d57505f73ffffffffffffffffffffffffffffffffffffffff168273ffffffffffffffffffffffffffffffffffffffff1614155b1561119f575f61107c8461079b565b90505f73ffffffffffffffffffffffffffffffffffffffff168373ffffffffffffffffffffffffffffffffffffffff16141580156110e657508273ffffffffffffffffffffffffffffffffffffffff168173ffffffffffffffffffffffffffffffffffffffff1614155b80156110f957506110f781846106ad565b155b1561113b57826040517fa9fbf51f000000000000000000000000000000000000000000000000000000008152600401611132919061199a565b60405180910390fd5b811561119d57838573ffffffffffffffffffffffffffffffffffffffff168273ffffffffffffffffffffffffffffffffffffffff167f8c5be1e5ebec7d5bd14f71427d1e84f3dd0314c0f7b2291e5b200ac8c7c3b92560405160405180910390a45b505b8360045f8581526020019081526020015f205f6101000a81548173ffffffffffffffffffffffffffffffffffffffff021916908373ffffffffffffffffffffffffffffffffffffffff16021790555050505050565b6111ff8383836113c1565b6112b2575f73ffffffffffffffffffffffffffffffffffffffff168373ffffffffffffffffffffffffffffffffffffffff160361127357806040517f7e27328900000000000000000000000000000000000000000000000000000000815260040161126a9190611aa5565b60405180910390fd5b81816040517f177e802f0000000000000000000000000000000000000000000000000000000081526004016112a99291906122b2565b60405180910390fd5b505050565b606060405180608001604052806056815260200161230760569139905090565b60606112e28261079b565b505f6112ec6112b7565b90505f81511161130a5760405180602001604052805f815250611335565b8061131484611481565b604051602001611325929190612023565b6040516020818303038152906040525b915050919050565b611347838361154b565b6113535f848484610be7565b505050565b5f7f01ffc9a7000000000000000000000000000000000000000000000000000000007bffffffffffffffffffffffffffffffffffffffffffffffffffffffff1916827bffffffffffffffffffffffffffffffffffffffffffffffffffffffff1916149050919050565b5f8073ffffffffffffffffffffffffffffffffffffffff168373ffffffffffffffffffffffffffffffffffffffff161415801561147857508273ffffffffffffffffffffffffffffffffffffffff168473ffffffffffffffffffffffffffffffffffffffff161480611439575061143884846106ad565b5b8061147757508273ffffffffffffffffffffffffffffffffffffffff1661145f83610821565b73ffffffffffffffffffffffffffffffffffffffff16145b5b90509392505050565b60605f600161148f8461163e565b0190505f8167ffffffffffffffff8111156114ad576114ac611b2e565b5b6040519080825280601f01601f1916602001820160405280156114df5781602001600182028036833780820191505090505b5090505f82602001820190505b600115611540578080600190039150507f3031323334353637383961626364656600000000000000000000000000000000600a86061a8153600a8581611535576115346122d9565b5b0494505f85036114ec575b819350505050919050565b5f73ffffffffffffffffffffffffffffffffffffffff168273ffffffffffffffffffffffffffffffffffffffff16036115bb575f6040517f64a0ae920000000000000000000000000000000000000000000000000000000081526004016115b2919061199a565b60405180910390fd5b5f6115c783835f610873565b90505f73ffffffffffffffffffffffffffffffffffffffff168173ffffffffffffffffffffffffffffffffffffffff1614611639575f6040517f73c6ac6e000000000000000000000000000000000000000000000000000000008152600401611630919061199a565b60405180910390fd5b505050565b5f805f90507a184f03e93ff9f4daa797ed6e38ed64bf6a1f010000000000000000831061169a577a184f03e93ff9f4daa797ed6e38ed64bf6a1f01000000000000000083816116905761168f6122d9565b5b0492506040810190505b6d04ee2d6d415b85acef810000000083106116d7576d04ee2d6d415b85acef810000000083816116cd576116cc6122d9565b5b0492506020810190505b662386f26fc10000831061170657662386f26fc1000083816116fc576116fb6122d9565b5b0492506010810190505b6305f5e100831061172f576305f5e1008381611725576117246122d9565b5b0492506008810190505b612710831061175457612710838161174a576117496122d9565b5b0492506004810190505b60648310611777576064838161176d5761176c6122d9565b5b0492506002810190505b600a8310611786576001810190505b80915050919050565b5f604051905090565b5f80fd5b5f80fd5b5f7fffffffff0000000000000000000000000000000000000000000000000000000082169050919050565b6117d4816117a0565b81146117de575f80fd5b50565b5f813590506117ef816117cb565b92915050565b5f6020828403121561180a57611809611798565b5b5f611817848285016117e1565b91505092915050565b5f8115159050919050565b61183481611820565b82525050565b5f60208201905061184d5f83018461182b565b92915050565b5f81519050919050565b5f82825260208201905092915050565b5f5b8381101561188a57808201518184015260208101905061186f565b5f8484015250505050565b5f601f19601f8301169050919050565b5f6118af82611853565b6118b9818561185d565b93506118c981856020860161186d565b6118d281611895565b840191505092915050565b5f6020820190508181035f8301526118f581846118a5565b905092915050565b5f819050919050565b61190f816118fd565b8114611919575f80fd5b50565b5f8135905061192a81611906565b92915050565b5f6020828403121561194557611944611798565b5b5f6119528482850161191c565b91505092915050565b5f73ffffffffffffffffffffffffffffffffffffffff82169050919050565b5f6119848261195b565b9050919050565b6119948161197a565b82525050565b5f6020820190506119ad5f83018461198b565b92915050565b6119bc8161197a565b81146119c6575f80fd5b50565b5f813590506119d7816119b3565b92915050565b5f80604083850312156119f3576119f2611798565b5b5f611a00858286016119c9565b9250506020611a118582860161191c565b9150509250929050565b5f805f60608486031215611a3257611a31611798565b5b5f611a3f868287016119c9565b9350506020611a50868287016119c9565b9250506040611a618682870161191c565b9150509250925092565b5f60208284031215611a8057611a7f611798565b5b5f611a8d848285016119c9565b91505092915050565b611a9f816118fd565b82525050565b5f602082019050611ab85f830184611a96565b92915050565b611ac781611820565b8114611ad1575f80fd5b50565b5f81359050611ae281611abe565b92915050565b5f8060408385031215611afe57611afd611798565b5b5f611b0b858286016119c9565b9250506020611b1c85828601611ad4565b9150509250929050565b5f80fd5b5f80fd5b7f4e487b71000000000000000000000000000000000000000000000000000000005f52604160045260245ffd5b611b6482611895565b810181811067ffffffffffffffff82111715611b8357611b82611b2e565b5b80604052505050565b5f611b9561178f565b9050611ba18282611b5b565b919050565b5f67ffffffffffffffff821115611bc057611bbf611b2e565b5b611bc982611895565b9050602081019050919050565b828183375f83830152505050565b5f611bf6611bf184611ba6565b611b8c565b905082815260208101848484011115611c1257611c11611b2a565b5b611c1d848285611bd6565b509392505050565b5f82601f830112611c3957611c38611b26565b5b8135611c49848260208601611be4565b91505092915050565b5f805f8060808587031215611c6a57611c69611798565b5b5f611c77878288016119c9565b9450506020611c88878288016119c9565b9350506040611c998782880161191c565b925050606085013567ffffffffffffffff811115611cba57611cb961179c565b5b611cc687828801611c25565b91505092959194509250565b5f67ffffffffffffffff821115611cec57611ceb611b2e565b5b611cf582611895565b9050602081019050919050565b5f611d14611d0f84611cd2565b611b8c565b905082815260208101848484011115611d3057611d2f611b2a565b5b611d3b848285611bd6565b509392505050565b5f82601f830112611d5757611d56611b26565b5b8135611d67848260208601611d02565b91505092915050565b5f8060408385031215611d8657611d85611798565b5b5f611d93858286016119c9565b925050602083013567ffffffffffffffff811115611db457611db361179c565b5b611dc085828601611d43565b9150509250929050565b5f8060408385031215611de057611ddf611798565b5b5f611ded858286016119c9565b9250506020611dfe858286016119c9565b9150509250929050565b7f4e487b71000000000000000000000000000000000000000000000000000000005f52602260045260245ffd5b5f6002820490506001821680611e4c57607f821691505b602082108103611e5f57611e5e611e08565b5b50919050565b5f606082019050611e785f83018661198b565b611e856020830185611a96565b611e92604083018461198b565b949350505050565b7f4e487b71000000000000000000000000000000000000000000000000000000005f52601160045260245ffd5b5f611ed1826118fd565b91507fffffffffffffffffffffffffffffffffffffffffffffffffffffffffffffffff8203611f0357611f02611e9a565b5b600182019050919050565b5f81519050919050565b5f82825260208201905092915050565b5f611f3282611f0e565b611f3c8185611f18565b9350611f4c81856020860161186d565b611f5581611895565b840191505092915050565b5f608082019050611f735f83018761198b565b611f80602083018661198b565b611f8d6040830185611a96565b8181036060830152611f9f8184611f28565b905095945050505050565b5f81519050611fb8816117cb565b92915050565b5f60208284031215611fd357611fd2611798565b5b5f611fe084828501611faa565b91505092915050565b5f81905092915050565b5f611ffd82611853565b6120078185611fe9565b935061201781856020860161186d565b80840191505092915050565b5f61202e8285611ff3565b915061203a8284611ff3565b91508190509392505050565b5f819050815f5260205f209050919050565b5f6020601f8301049050919050565b5f82821b905092915050565b5f600883026120a27fffffffffffffffffffffffffffffffffffffffffffffffffffffffffffffffff82612067565b6120ac8683612067565b95508019841693508086168417925050509392505050565b5f819050919050565b5f6120e76120e26120dd846118fd565b6120c4565b6118fd565b9050919050565b5f819050919050565b612100836120cd565b61211461210c826120ee565b848454612073565b825550505050565b5f90565b61212861211c565b6121338184846120f7565b505050565b5b818110156121565761214b5f82612120565b600181019050612139565b5050565b601f82111561219b5761216c81612046565b61217584612058565b81016020851015612184578190505b61219861219085612058565b830182612138565b50505b505050565b5f82821c905092915050565b5f6121bb5f19846008026121a0565b1980831691505092915050565b5f6121d383836121ac565b9150826002028217905092915050565b6121ec82611853565b67ffffffffffffffff81111561220557612204611b2e565b5b61220f8254611e35565b61221a82828561215a565b5f60209050601f83116001811461224b575f8415612239578287015190505b61224385826121c8565b8655506122aa565b601f19841661225986612046565b5f5b828110156122805784890151825560018201915060208501945060208101905061225b565b8683101561229d5784890151612299601f8916826121ac565b8355505b6001600288020188555050505b505050505050565b5f6040820190506122c55f83018561198b565b6122d26020830184611a96565b9392505050565b7f4e487b71000000000000000000000000000000000000000000000000000000005f52601260045260245ffdfe68747470733a2f2f657468657265756d2d626c6f636b636861696e2d646576656c6f7065722e636f6d2f323032322d30362d6e66742d74727566666c652d686172646861742d666f756e6472792f6e6674646174612fa2646970667358221220ee33460b36c46f303ea728bd6ce6f8396550adb16c6627e2ec33ff1aa3a9ab8864736f6c63430008150033",
  "immutableReferences": {},
  "source": "// SPDX-License-Identifier: MIT\r\n// Compatible with OpenZeppelin Contracts ^5.0.0\r\npragma solidity ^0.8.20;\r\n\r\nimport \"@openzeppelin/contracts/token/ERC721/ERC721.sol\";\r\nimport \"@openzeppelin/contracts/token/ERC721/extensions/ERC721URIStorage.sol\";\r\n// import \"@openzeppelin/contracts/access/Ownable.sol\";\r\n\r\n// contract Spacebear is ERC721, ERC721URIStorage, Ownable {\r\ncontract Spacebear is ERC721, ERC721URIStorage {\r\n    uint256 private _nextTokenId;\r\n\r\n    // constructor(\r\n    //     address initialOwner\r\n    // ) ERC721(\"Spacebear\", \"SPB\") Ownable(initialOwner) {}\r\n\r\n    constructor() ERC721(\"Spacebear\", \"SPB\") {}\r\n\r\n    function _baseURI() internal pure override returns (string memory) {\r\n        return\r\n            \"https://ethereum-blockchain-developer.com/2022-06-nft-truffle-hardhat-foundry/nftdata/\";\r\n    }\r\n\r\n    // function safeMint(address to, string memory uri) public onlyOwner {\r\n    function safeMint(address to, string memory uri) public {\r\n        uint256 tokenId = _nextTokenId++;\r\n        _safeMint(to, tokenId);\r\n        _setTokenURI(tokenId, uri);\r\n    }\r\n\r\n    // The following functions are overrides required by Solidity.\r\n\r\n    function tokenURI(\r\n        uint256 tokenId\r\n    ) public view override(ERC721, ERC721URIStorage) returns (string memory) {\r\n        return super.tokenURI(tokenId);\r\n    }\r\n\r\n    function supportsInterface(\r\n        bytes4 interfaceId\r\n    ) public view override(ERC721, ERC721URIStorage) returns (bool) {\r\n        return super.supportsInterface(interfaceId);\r\n    }\r\n}\r\n",
  "sourcePath": "C:\\Users\\joshi\\OneDrive\\Desktop\\nft-project\\truffle\\contracts\\Spacebear.sol",
  "compiler": {
    "name": "solc",
    "version": "0.8.21+commit.d9974bed.Emscripten.clang"
  },
  "schemaVersion": "3.4.16",
  "updatedAt": "2024-09-15T06:56:27.200Z",
  "networkType": "ethereum",
  "devdoc": {
    "errors": {
      "ERC721IncorrectOwner(address,uint256,address)": [
        {
          "details": "Indicates an error related to the ownership over a particular token. Used in transfers.",
          "params": {
            "owner": "Address of the current owner of a token.",
            "sender": "Address whose tokens are being transferred.",
            "tokenId": "Identifier number of a token."
          }
        }
      ],
      "ERC721InsufficientApproval(address,uint256)": [
        {
          "details": "Indicates a failure with the `operator`s approval. Used in transfers.",
          "params": {
            "operator": "Address that may be allowed to operate on tokens without being their owner.",
            "tokenId": "Identifier number of a token."
          }
        }
      ],
      "ERC721InvalidApprover(address)": [
        {
          "details": "Indicates a failure with the `approver` of a token to be approved. Used in approvals.",
          "params": {
            "approver": "Address initiating an approval operation."
          }
        }
      ],
      "ERC721InvalidOperator(address)": [
        {
          "details": "Indicates a failure with the `operator` to be approved. Used in approvals.",
          "params": {
            "operator": "Address that may be allowed to operate on tokens without being their owner."
          }
        }
      ],
      "ERC721InvalidOwner(address)": [
        {
          "details": "Indicates that an address can't be an owner. For example, `address(0)` is a forbidden owner in EIP-20. Used in balance queries.",
          "params": {
            "owner": "Address of the current owner of a token."
          }
        }
      ],
      "ERC721InvalidReceiver(address)": [
        {
          "details": "Indicates a failure with the token `receiver`. Used in transfers.",
          "params": {
            "receiver": "Address to which tokens are being transferred."
          }
        }
      ],
      "ERC721InvalidSender(address)": [
        {
          "details": "Indicates a failure with the token `sender`. Used in transfers.",
          "params": {
            "sender": "Address whose tokens are being transferred."
          }
        }
      ],
      "ERC721NonexistentToken(uint256)": [
        {
          "details": "Indicates a `tokenId` whose `owner` is the zero address.",
          "params": {
            "tokenId": "Identifier number of a token."
          }
        }
      ]
    },
    "events": {
      "Approval(address,address,uint256)": {
        "details": "Emitted when `owner` enables `approved` to manage the `tokenId` token."
      },
      "ApprovalForAll(address,address,bool)": {
        "details": "Emitted when `owner` enables or disables (`approved`) `operator` to manage all of its assets."
      },
      "BatchMetadataUpdate(uint256,uint256)": {
        "details": "This event emits when the metadata of a range of tokens is changed. So that the third-party platforms such as NFT market could timely update the images and related attributes of the NFTs."
      },
      "MetadataUpdate(uint256)": {
        "details": "This event emits when the metadata of a token is changed. So that the third-party platforms such as NFT market could timely update the images and related attributes of the NFT."
      },
      "Transfer(address,address,uint256)": {
        "details": "Emitted when `tokenId` token is transferred from `from` to `to`."
      }
    },
    "kind": "dev",
    "methods": {
      "approve(address,uint256)": {
        "details": "See {IERC721-approve}."
      },
      "balanceOf(address)": {
        "details": "See {IERC721-balanceOf}."
      },
      "getApproved(uint256)": {
        "details": "See {IERC721-getApproved}."
      },
      "isApprovedForAll(address,address)": {
        "details": "See {IERC721-isApprovedForAll}."
      },
      "name()": {
        "details": "See {IERC721Metadata-name}."
      },
      "ownerOf(uint256)": {
        "details": "See {IERC721-ownerOf}."
      },
      "safeTransferFrom(address,address,uint256)": {
        "details": "See {IERC721-safeTransferFrom}."
      },
      "safeTransferFrom(address,address,uint256,bytes)": {
        "details": "See {IERC721-safeTransferFrom}."
      },
      "setApprovalForAll(address,bool)": {
        "details": "See {IERC721-setApprovalForAll}."
      },
      "symbol()": {
        "details": "See {IERC721Metadata-symbol}."
      },
      "transferFrom(address,address,uint256)": {
        "details": "See {IERC721-transferFrom}."
      }
    },
    "version": 1
  },
  "userdoc": {
    "kind": "user",
    "methods": {},
    "version": 1
  }
}